:100000000C9446000C9465000C9465000C946500FB
:100010000C9465000C9465000C9465000C946500CC
:100020000C9465000C9465000C9465000C946500BC
:100030000C9465000C9465000C9465000C946500AC
:100040000C9465000C9465000C9465000C9465009C
:100050000C9465000C9465000C9465000C9465008C
:100060000C9465000C9465000C9465000C9465007C
:100070000C9465000C9465000C9465000C9465006C
:100080000C9465000C9465000C94650011241FBE4F
:10009000CFEFD0E4DEBFCDBF11E0A0E0B1E0EEEBEA
:1000A000F1E000E00BBF02C007900D92A031B10754
:1000B000D9F721E0A0E1B1E001C01D92A131B20762
:1000C000E1F70E94A1000C94DD000C940000CF9396
:1000D000DF9300D01F92CDB7DEB789837B836A831D
:1000E00089818A3031F48A819B81BC018DE00E9434
:1000F000670080EC90E0FC018081882F90E08072A6
:100100009927892BB1F386EC90E02981FC012083AB
:1001100080E090E00F900F900F90DF91CF910895C5
:10012000CF93DF93CDB7DEB78AE790E02AE730E0E0
:10013000F9012081206EFC0120830000DF91CF9126
:100140000895CF93DF93CDB7DEB784E290E02FEF31
:10015000FC01208385E290E0FC0110828AE290E0BD
:100160002FEFFC0120838BE290E0FC0110820E94C3
:10017000900088E790E0FC018081918190930F01CD
:1001800080930E0180910E0190910F01892F992784
:10019000809310018BE290E020911001FC012083FC
:1001A00080910E0190910F018093100185E290E003
:0E01B00020911001FC012083DCCFF894FFCFDA
:1001BE000000000200000000670000000000CDAB50
:00000001FF
